{
  "contractName": "GuessNumber",
  "abi": [
    {
      "constant": true,
      "inputs": [
        {
          "name": "",
          "type": "address"
        }
      ],
      "name": "guesses",
      "outputs": [
        {
          "name": "lastGuess",
          "type": "uint256"
        },
        {
          "name": "lastCorrectGuess",
          "type": "uint256"
        },
        {
          "name": "correctGuessCount",
          "type": "uint256"
        },
        {
          "name": "wrongGuessCount",
          "type": "uint256"
        },
        {
          "name": "lastGuessAt",
          "type": "uint256"
        }
      ],
      "payable": false,
      "stateMutability": "view",
      "type": "function"
    },
    {
      "constant": true,
      "inputs": [],
      "name": "totalNoOfGuesses",
      "outputs": [
        {
          "name": "",
          "type": "uint256"
        }
      ],
      "payable": false,
      "stateMutability": "view",
      "type": "function"
    },
    {
      "constant": true,
      "inputs": [],
      "name": "range",
      "outputs": [
        {
          "name": "",
          "type": "uint256"
        }
      ],
      "payable": false,
      "stateMutability": "view",
      "type": "function"
    },
    {
      "inputs": [
        {
          "name": "_range",
          "type": "uint256"
        }
      ],
      "payable": false,
      "stateMutability": "nonpayable",
      "type": "constructor"
    },
    {
      "anonymous": false,
      "inputs": [
        {
          "indexed": true,
          "name": "_from",
          "type": "address"
        },
        {
          "indexed": false,
          "name": "_randomNumber",
          "type": "uint256"
        },
        {
          "indexed": false,
          "name": "_guess",
          "type": "uint256"
        }
      ],
      "name": "Guessed",
      "type": "event"
    },
    {
      "constant": false,
      "inputs": [
        {
          "name": "_guess",
          "type": "uint256"
        }
      ],
      "name": "guessIt",
      "outputs": [
        {
          "name": "",
          "type": "bool"
        }
      ],
      "payable": false,
      "stateMutability": "nonpayable",
      "type": "function"
    },
    {
      "constant": false,
      "inputs": [
        {
          "name": "_range",
          "type": "uint256"
        }
      ],
      "name": "generateRandomNumber",
      "outputs": [
        {
          "name": "",
          "type": "uint256"
        }
      ],
      "payable": false,
      "stateMutability": "nonpayable",
      "type": "function"
    }
  ],
  "bytecode": "0x608060405234801561001057600080fd5b5060405160208061047a8339810180604052810190808051906020019092919050505080600081905550506104308061004a6000396000f30060806040526004361061006d576000357c0100000000000000000000000000000000000000000000000000000000900463ffffffff1680634303707e146100725780634ef9b89c146100b357806380d6224d14610126578063d9b01a1d14610151578063e97206a914610196575b600080fd5b34801561007e57600080fd5b5061009d600480360381019080803590602001909291905050506101c1565b6040518082815260200191505060405180910390f35b3480156100bf57600080fd5b506100f4600480360381019080803573ffffffffffffffffffffffffffffffffffffffff1690602001909291905050506101ef565b604051808681526020018581526020018481526020018381526020018281526020019550505050505060405180910390f35b34801561013257600080fd5b5061013b610225565b6040518082815260200191505060405180910390f35b34801561015d57600080fd5b5061017c6004803603810190808035906020019092919050505061022b565b604051808215151515815260200191505060405180910390f35b3480156101a257600080fd5b506101ab6103fe565b6040518082815260200191505060405180910390f35b60008142604051808281526020019150506040518091039020600190048115156101e757fe5b069050919050565b60026020528060005260406000206000915090508060000154908060010154908060020154908060030154908060040154905085565b60015481565b600080600080600054851115151561024257600080fd5b61024d6000546101c1565b92508483141561032d57600260003373ffffffffffffffffffffffffffffffffffffffff1673ffffffffffffffffffffffffffffffffffffffff16815260200190815260200160002091508482600001819055508482600101819055506001826002015401826002018190555042826004018190555060018054016001819055503373ffffffffffffffffffffffffffffffffffffffff167f87904a76ae6018905337cc4967db04d014db82bb6d592acbb91c25c1b47955648487604051808381526020018281526020019250505060405180910390a2600193506103f6565b600260003373ffffffffffffffffffffffffffffffffffffffff1673ffffffffffffffffffffffffffffffffffffffff16815260200190815260200160002090508481600001819055506001816003015401816003018190555042816004018190555060018054016001819055503373ffffffffffffffffffffffffffffffffffffffff167f87904a76ae6018905337cc4967db04d014db82bb6d592acbb91c25c1b47955648487604051808381526020018281526020019250505060405180910390a2600093505b505050919050565b600054815600a165627a7a7230582059aeceb1a0a60975923d7ee7584d73e84133c32d51344bd4340c33c6f55410240029",
  "source": "pragma solidity ^0.4.17;\n\ncontract GuessNumber {\n\n  uint public range;\n  uint public totalNoOfGuesses;\n\n  //structure to store the Guess\n  struct Guess {\n    uint lastGuess;\n    uint lastCorrectGuess;\n    uint correctGuessCount;\n    uint wrongGuessCount;\n    uint lastGuessAt;\n  }\n\n  mapping(address => Guess) public guesses;\n\n  event Guessed (\n    address indexed _from,\n    uint _randomNumber,\n    uint _guess\n  );\n\n  //Initiazed the range between which a number should be guessed.\n  function GuessNumber(uint _range) public {\n    range = _range;\n  }\n\n  //function to store the guess in the mapping when a guess is made.\n  function guessIt(uint _guess) public returns (bool) {\n    //Need to check if the guess number is less than or equal tp range\n    require(_guess <= range);\n    uint random = generateRandomNumber(range);\n    // uint random = 10;\n    if (random == _guess) {\n      Guess storage correctGuess = guesses[msg.sender];\n      \n      correctGuess.lastGuess = _guess;\n      correctGuess.lastCorrectGuess = _guess;\n      correctGuess.correctGuessCount = correctGuess.correctGuessCount + 1;\n      correctGuess.lastGuessAt = now;\n      totalNoOfGuesses = totalNoOfGuesses + 1;\n\n      Guessed(msg.sender,random, _guess);\n\n      return true;\n\n    } else {\n      Guess storage wrongGuess = guesses[msg.sender];\n      \n      wrongGuess.lastGuess = _guess;\n      wrongGuess.wrongGuessCount = wrongGuess.wrongGuessCount + 1;\n      wrongGuess.lastGuessAt = now;\n      totalNoOfGuesses = totalNoOfGuesses + 1;\n\n      Guessed(msg.sender,random, _guess);\n    }\n    return false;\n  }\n\n  function generateRandomNumber(uint _range) public returns (uint) {\n    return uint(sha3(block.timestamp)) % _range;\n  }\n\n}",
  "sourcePath": "/home/arindamm/Arindam/BlockChain/GuessRandomNumber/contracts/GuessNumber.sol",
  "compiler": {
    "name": "solc",
    "version": "0.4.23+commit.124ca40d.Emscripten.clang"
  },
  "schemaVersion": "2.0.0",
  "updatedAt": "2018-06-16T04:24:04.676Z"
}